{
  "_format": "hh-sol-artifact-1",
  "contractName": "NFTMarket",
  "sourceName": "contracts/NFTMarketplace.sol",
  "abi": [
    {
      "inputs": [],
      "stateMutability": "nonpayable",
      "type": "constructor"
    },
    {
      "anonymous": false,
      "inputs": [
        {
          "indexed": true,
          "internalType": "address",
          "name": "owner",
          "type": "address"
        },
        {
          "indexed": true,
          "internalType": "address",
          "name": "approved",
          "type": "address"
        },
        {
          "indexed": true,
          "internalType": "uint256",
          "name": "tokenId",
          "type": "uint256"
        }
      ],
      "name": "Approval",
      "type": "event"
    },
    {
      "anonymous": false,
      "inputs": [
        {
          "indexed": true,
          "internalType": "address",
          "name": "owner",
          "type": "address"
        },
        {
          "indexed": true,
          "internalType": "address",
          "name": "operator",
          "type": "address"
        },
        {
          "indexed": false,
          "internalType": "bool",
          "name": "approved",
          "type": "bool"
        }
      ],
      "name": "ApprovalForAll",
      "type": "event"
    },
    {
      "anonymous": false,
      "inputs": [
        {
          "indexed": false,
          "internalType": "uint256",
          "name": "_fromTokenId",
          "type": "uint256"
        },
        {
          "indexed": false,
          "internalType": "uint256",
          "name": "_toTokenId",
          "type": "uint256"
        }
      ],
      "name": "BatchMetadataUpdate",
      "type": "event"
    },
    {
      "anonymous": false,
      "inputs": [
        {
          "indexed": false,
          "internalType": "uint256",
          "name": "_tokenId",
          "type": "uint256"
        }
      ],
      "name": "MetadataUpdate",
      "type": "event"
    },
    {
      "anonymous": false,
      "inputs": [
        {
          "indexed": false,
          "internalType": "uint256",
          "name": "tokenID",
          "type": "uint256"
        },
        {
          "indexed": false,
          "internalType": "address",
          "name": "from",
          "type": "address"
        },
        {
          "indexed": false,
          "internalType": "address",
          "name": "to",
          "type": "address"
        },
        {
          "indexed": false,
          "internalType": "string",
          "name": "tokenURI",
          "type": "string"
        },
        {
          "indexed": false,
          "internalType": "uint256",
          "name": "price",
          "type": "uint256"
        }
      ],
      "name": "NFTTransfer",
      "type": "event"
    },
    {
      "anonymous": false,
      "inputs": [
        {
          "indexed": true,
          "internalType": "address",
          "name": "previousOwner",
          "type": "address"
        },
        {
          "indexed": true,
          "internalType": "address",
          "name": "newOwner",
          "type": "address"
        }
      ],
      "name": "OwnershipTransferred",
      "type": "event"
    },
    {
      "anonymous": false,
      "inputs": [
        {
          "indexed": true,
          "internalType": "address",
          "name": "from",
          "type": "address"
        },
        {
          "indexed": true,
          "internalType": "address",
          "name": "to",
          "type": "address"
        },
        {
          "indexed": true,
          "internalType": "uint256",
          "name": "tokenId",
          "type": "uint256"
        }
      ],
      "name": "Transfer",
      "type": "event"
    },
    {
      "inputs": [
        {
          "internalType": "address",
          "name": "to",
          "type": "address"
        },
        {
          "internalType": "uint256",
          "name": "tokenId",
          "type": "uint256"
        }
      ],
      "name": "approve",
      "outputs": [],
      "stateMutability": "nonpayable",
      "type": "function"
    },
    {
      "inputs": [
        {
          "internalType": "address",
          "name": "owner",
          "type": "address"
        }
      ],
      "name": "balanceOf",
      "outputs": [
        {
          "internalType": "uint256",
          "name": "",
          "type": "uint256"
        }
      ],
      "stateMutability": "view",
      "type": "function"
    },
    {
      "inputs": [
        {
          "internalType": "uint256",
          "name": "tokenID",
          "type": "uint256"
        }
      ],
      "name": "buyNFT",
      "outputs": [],
      "stateMutability": "payable",
      "type": "function"
    },
    {
      "inputs": [
        {
          "internalType": "uint256",
          "name": "tokenID",
          "type": "uint256"
        }
      ],
      "name": "cancelListing",
      "outputs": [],
      "stateMutability": "nonpayable",
      "type": "function"
    },
    {
      "inputs": [
        {
          "internalType": "string",
          "name": "tokenURI",
          "type": "string"
        }
      ],
      "name": "createNFT",
      "outputs": [],
      "stateMutability": "nonpayable",
      "type": "function"
    },
    {
      "inputs": [
        {
          "internalType": "uint256",
          "name": "tokenId",
          "type": "uint256"
        }
      ],
      "name": "getApproved",
      "outputs": [
        {
          "internalType": "address",
          "name": "",
          "type": "address"
        }
      ],
      "stateMutability": "view",
      "type": "function"
    },
    {
      "inputs": [
        {
          "internalType": "address",
          "name": "owner",
          "type": "address"
        },
        {
          "internalType": "address",
          "name": "operator",
          "type": "address"
        }
      ],
      "name": "isApprovedForAll",
      "outputs": [
        {
          "internalType": "bool",
          "name": "",
          "type": "bool"
        }
      ],
      "stateMutability": "view",
      "type": "function"
    },
    {
      "inputs": [
        {
          "internalType": "uint256",
          "name": "tokenID",
          "type": "uint256"
        },
        {
          "internalType": "uint256",
          "name": "price",
          "type": "uint256"
        }
      ],
      "name": "listNFT",
      "outputs": [],
      "stateMutability": "nonpayable",
      "type": "function"
    },
    {
      "inputs": [],
      "name": "name",
      "outputs": [
        {
          "internalType": "string",
          "name": "",
          "type": "string"
        }
      ],
      "stateMutability": "view",
      "type": "function"
    },
    {
      "inputs": [],
      "name": "owner",
      "outputs": [
        {
          "internalType": "address",
          "name": "",
          "type": "address"
        }
      ],
      "stateMutability": "view",
      "type": "function"
    },
    {
      "inputs": [
        {
          "internalType": "uint256",
          "name": "tokenId",
          "type": "uint256"
        }
      ],
      "name": "ownerOf",
      "outputs": [
        {
          "internalType": "address",
          "name": "",
          "type": "address"
        }
      ],
      "stateMutability": "view",
      "type": "function"
    },
    {
      "inputs": [],
      "name": "renounceOwnership",
      "outputs": [],
      "stateMutability": "nonpayable",
      "type": "function"
    },
    {
      "inputs": [
        {
          "internalType": "address",
          "name": "from",
          "type": "address"
        },
        {
          "internalType": "address",
          "name": "to",
          "type": "address"
        },
        {
          "internalType": "uint256",
          "name": "tokenId",
          "type": "uint256"
        }
      ],
      "name": "safeTransferFrom",
      "outputs": [],
      "stateMutability": "nonpayable",
      "type": "function"
    },
    {
      "inputs": [
        {
          "internalType": "address",
          "name": "from",
          "type": "address"
        },
        {
          "internalType": "address",
          "name": "to",
          "type": "address"
        },
        {
          "internalType": "uint256",
          "name": "tokenId",
          "type": "uint256"
        },
        {
          "internalType": "bytes",
          "name": "data",
          "type": "bytes"
        }
      ],
      "name": "safeTransferFrom",
      "outputs": [],
      "stateMutability": "nonpayable",
      "type": "function"
    },
    {
      "inputs": [
        {
          "internalType": "address",
          "name": "operator",
          "type": "address"
        },
        {
          "internalType": "bool",
          "name": "approved",
          "type": "bool"
        }
      ],
      "name": "setApprovalForAll",
      "outputs": [],
      "stateMutability": "nonpayable",
      "type": "function"
    },
    {
      "inputs": [
        {
          "internalType": "bytes4",
          "name": "interfaceId",
          "type": "bytes4"
        }
      ],
      "name": "supportsInterface",
      "outputs": [
        {
          "internalType": "bool",
          "name": "",
          "type": "bool"
        }
      ],
      "stateMutability": "view",
      "type": "function"
    },
    {
      "inputs": [],
      "name": "symbol",
      "outputs": [
        {
          "internalType": "string",
          "name": "",
          "type": "string"
        }
      ],
      "stateMutability": "view",
      "type": "function"
    },
    {
      "inputs": [
        {
          "internalType": "uint256",
          "name": "tokenId",
          "type": "uint256"
        }
      ],
      "name": "tokenURI",
      "outputs": [
        {
          "internalType": "string",
          "name": "",
          "type": "string"
        }
      ],
      "stateMutability": "view",
      "type": "function"
    },
    {
      "inputs": [
        {
          "internalType": "address",
          "name": "from",
          "type": "address"
        },
        {
          "internalType": "address",
          "name": "to",
          "type": "address"
        },
        {
          "internalType": "uint256",
          "name": "tokenId",
          "type": "uint256"
        }
      ],
      "name": "transferFrom",
      "outputs": [],
      "stateMutability": "nonpayable",
      "type": "function"
    },
    {
      "inputs": [
        {
          "internalType": "address",
          "name": "newOwner",
          "type": "address"
        }
      ],
      "name": "transferOwnership",
      "outputs": [],
      "stateMutability": "nonpayable",
      "type": "function"
    },
    {
      "inputs": [],
      "name": "withdrawFunds",
      "outputs": [],
      "stateMutability": "nonpayable",
      "type": "function"
    }
  ],
  "bytecode": "0x60806040523480156200001157600080fd5b50604080518082018252600f81526e426c6f636b3336392773204e46547360881b6020808301918252835180850190945260048452631093919560e21b9084015281519192916200006591600091620000f4565b5080516200007b906001906020840190620000f4565b50505062000098620000926200009e60201b60201c565b620000a2565b620001d7565b3390565b600780546001600160a01b038381166001600160a01b0319831681179093556040519116919082907f8be0079c531659141344cd1fd0a4f28419497f9722a3daafe3b4186f6b6457e090600090a35050565b82805462000102906200019a565b90600052602060002090601f01602090048101928262000126576000855562000171565b82601f106200014157805160ff191683800117855562000171565b8280016001018555821562000171579182015b828111156200017157825182559160200191906001019062000154565b506200017f92915062000183565b5090565b5b808211156200017f576000815560010162000184565b600181811c90821680620001af57607f821691505b60208210811415620001d157634e487b7160e01b600052602260045260246000fd5b50919050565b61224480620001e76000396000f3fe60806040526004361061016a5760003560e01c806370a08231116100cb578063a22cb4651161007f578063da2ed03e11610059578063da2ed03e146103be578063e985e9c5146103de578063f2fde38b1461042757600080fd5b8063a22cb4651461035e578063b88d4fde1461037e578063c87b56dd1461039e57600080fd5b80638da5cb5b116100b05780638da5cb5b1461030b57806394383f141461032957806395d89b411461034957600080fd5b806370a08231146102c8578063715018a6146102f657600080fd5b806324600fc31161012257806342842e0e1161010757806342842e0e1461027557806351ed8288146102955780636352211e146102a857600080fd5b806324600fc314610240578063305a67a81461025557600080fd5b8063081812fc11610153578063081812fc146101c6578063095ea7b3146101fe57806323b872dd1461022057600080fd5b806301ffc9a71461016f57806306fdde03146101a4575b600080fd5b34801561017b57600080fd5b5061018f61018a366004611f4e565b610447565b60405190151581526020015b60405180910390f35b3480156101b057600080fd5b506101b961048b565b60405161019b91906120c3565b3480156101d257600080fd5b506101e66101e1366004611ff3565b61051d565b6040516001600160a01b03909116815260200161019b565b34801561020a57600080fd5b5061021e610219366004611f25565b610544565b005b34801561022c57600080fd5b5061021e61023b366004611ddb565b61067b565b34801561024c57600080fd5b5061021e6106f2565b34801561026157600080fd5b5061021e610270366004611ff3565b610779565b34801561028157600080fd5b5061021e610290366004611ddb565b61093e565b61021e6102a3366004611ff3565b610959565b3480156102b457600080fd5b506101e66102c3366004611ff3565b610b67565b3480156102d457600080fd5b506102e86102e3366004611d8f565b610bcc565b60405190815260200161019b565b34801561030257600080fd5b5061021e610c66565b34801561031757600080fd5b506007546001600160a01b03166101e6565b34801561033557600080fd5b5061021e61034436600461200b565b610c7a565b34801561035557600080fd5b506101b9610d96565b34801561036a57600080fd5b5061021e610379366004611eeb565b610da5565b34801561038a57600080fd5b5061021e610399366004611e16565b610db0565b3480156103aa57600080fd5b506101b96103b9366004611ff3565b610e2e565b3480156103ca57600080fd5b5061021e6103d9366004611f86565b610f3f565b3480156103ea57600080fd5b5061018f6103f9366004611da9565b6001600160a01b03918216600090815260056020908152604080832093909416825291909152205460ff1690565b34801561043357600080fd5b5061021e610442366004611d8f565b610fec565b60006001600160e01b031982167f4906490600000000000000000000000000000000000000000000000000000000148061048557506104858261107c565b92915050565b60606000805461049a906121a7565b80601f01602080910402602001604051908101604052809291908181526020018280546104c6906121a7565b80156105135780601f106104e857610100808354040283529160200191610513565b820191906000526020600020905b8154815290600101906020018083116104f657829003601f168201915b5050505050905090565b600061052882611117565b506000908152600460205260409020546001600160a01b031690565b600061054f82610b67565b9050806001600160a01b0316836001600160a01b031614156105de5760405162461bcd60e51b815260206004820152602160248201527f4552433732313a20617070726f76616c20746f2063757272656e74206f776e6560448201527f720000000000000000000000000000000000000000000000000000000000000060648201526084015b60405180910390fd5b336001600160a01b03821614806105fa57506105fa81336103f9565b61066c5760405162461bcd60e51b815260206004820152603d60248201527f4552433732313a20617070726f76652063616c6c6572206973206e6f7420746f60448201527f6b656e206f776e6572206f7220617070726f76656420666f7220616c6c00000060648201526084016105d5565b610676838361117b565b505050565b61068533826111e9565b6106e75760405162461bcd60e51b815260206004820152602d60248201527f4552433732313a2063616c6c6572206973206e6f7420746f6b656e206f776e6560448201526c1c881bdc88185c1c1c9bdd9959609a1b60648201526084016105d5565b610676838383611267565b6106fa611460565b47806107485760405162461bcd60e51b815260206004820152601a60248201527f4e46544d61726b65743a2062616c616e6365206973207a65726f00000000000060448201526064016105d5565b604051339082156108fc029083906000818181858888f19350505050158015610775573d6000803e3d6000fd5b5050565b600081815260096020908152604091829020825180840190935280548084526001909101546001600160a01b0316918301919091526108055760405162461bcd60e51b815260206004820152602260248201527f4e46544d61726b65743a206e6674206e6f74206c697374656420666f722073616044820152616c6560f01b60648201526084016105d5565b60208101516001600160a01b031633146108615760405162461bcd60e51b815260206004820181905260248201527f4e46544d61726b65743a20796f75277265206e6f74207468652073656c6c657260448201526064016105d5565b6040516323b872dd60e01b8152306004820181905233602483015260448201849052906323b872dd90606401600060405180830381600087803b1580156108a757600080fd5b505af11580156108bb573d6000803e3d6000fd5b505050600083815260096020526040812090815560010180546001600160a01b03191690555060408051838152306020820152339181019190915260a060608201819052600090820181905260808201527f705332a8918666802fc1504f63ff1f002a5f6cedd30d59ad7ae0b5281aeb8dca9060c0015b60405180910390a15050565b61067683838360405180602001604052806000815250610db0565b600081815260096020908152604091829020825180840190935280548084526001909101546001600160a01b0316918301919091526109e55760405162461bcd60e51b815260206004820152602260248201527f4e46544d61726b65743a206e6674206e6f74206c697374656420666f722073616044820152616c6560f01b60648201526084016105d5565b80513414610a355760405162461bcd60e51b815260206004820152601a60248201527f4e46544d61726b65743a20696e636f727265637420707269636500000000000060448201526064016105d5565b6040516323b872dd60e01b8152306004820181905233602483015260448201849052906323b872dd90606401600060405180830381600087803b158015610a7b57600080fd5b505af1158015610a8f573d6000803e3d6000fd5b505050600083815260096020526040812090815560010180546001600160a01b03191690555080602001516001600160a01b03166108fc610ae96064610ae3605f86600001516114ba90919063ffffffff16565b906114cd565b6040518115909202916000818181858888f19350505050158015610b11573d6000803e3d6000fd5b5060408051838152306020820152339181019190915260a060608201819052600090820181905260808201527f705332a8918666802fc1504f63ff1f002a5f6cedd30d59ad7ae0b5281aeb8dca9060c001610932565b6000818152600260205260408120546001600160a01b0316806104855760405162461bcd60e51b815260206004820152601860248201527f4552433732313a20696e76616c696420746f6b656e204944000000000000000060448201526064016105d5565b60006001600160a01b038216610c4a5760405162461bcd60e51b815260206004820152602960248201527f4552433732313a2061646472657373207a65726f206973206e6f74206120766160448201527f6c6964206f776e6572000000000000000000000000000000000000000000000060648201526084016105d5565b506001600160a01b031660009081526003602052604090205490565b610c6e611460565b610c7860006114d9565b565b60008111610cf05760405162461bcd60e51b815260206004820152602760248201527f4e46544d61726b65743a207072696365206d757374206265206772656174657260448201527f207468616e20300000000000000000000000000000000000000000000000000060648201526084016105d5565b610cfb33308461067b565b604080518082018252828152336020808301828152600087815260098352858120945185559051600190940180546001600160a01b0319166001600160a01b0390951694909417909355835186815290810191909152309281019290925260a060608301819052820152608081018290527f705332a8918666802fc1504f63ff1f002a5f6cedd30d59ad7ae0b5281aeb8dca9060c001610932565b60606001805461049a906121a7565b61077533838361152b565b610dba33836111e9565b610e1c5760405162461bcd60e51b815260206004820152602d60248201527f4552433732313a2063616c6c6572206973206e6f7420746f6b656e206f776e6560448201526c1c881bdc88185c1c1c9bdd9959609a1b60648201526084016105d5565b610e28848484846115fa565b50505050565b6060610e3982611117565b60008281526006602052604081208054610e52906121a7565b80601f0160208091040260200160405190810160405280929190818152602001828054610e7e906121a7565b8015610ecb5780601f10610ea057610100808354040283529160200191610ecb565b820191906000526020600020905b815481529060010190602001808311610eae57829003601f168201915b505050505090506000610ee960408051602081019091526000815290565b9050805160001415610efc575092915050565b815115610f2e578082604051602001610f16929190612058565b60405160208183030381529060405292505050919050565b610f3784611678565b949350505050565b610f4d600880546001019055565b6000610f5860085490565b9050610f6433826116eb565b610fa48184848080601f01602080910402602001604051908101604052809392919081815260200183838082843760009201919091525061170592505050565b7f705332a8918666802fc1504f63ff1f002a5f6cedd30d59ad7ae0b5281aeb8dca8160003386866000604051610fdf969594939291906120d6565b60405180910390a1505050565b610ff4611460565b6001600160a01b0381166110705760405162461bcd60e51b815260206004820152602660248201527f4f776e61626c653a206e6577206f776e657220697320746865207a65726f206160448201527f646472657373000000000000000000000000000000000000000000000000000060648201526084016105d5565b611079816114d9565b50565b60006001600160e01b031982167f80ac58cd0000000000000000000000000000000000000000000000000000000014806110df57506001600160e01b031982167f5b5e139f00000000000000000000000000000000000000000000000000000000145b8061048557507f01ffc9a7000000000000000000000000000000000000000000000000000000006001600160e01b0319831614610485565b6000818152600260205260409020546001600160a01b03166110795760405162461bcd60e51b815260206004820152601860248201527f4552433732313a20696e76616c696420746f6b656e204944000000000000000060448201526064016105d5565b600081815260046020526040902080546001600160a01b0319166001600160a01b03841690811790915581906111b082610b67565b6001600160a01b03167f8c5be1e5ebec7d5bd14f71427d1e84f3dd0314c0f7b2291e5b200ac8c7c3b92560405160405180910390a45050565b6000806111f583610b67565b9050806001600160a01b0316846001600160a01b0316148061123c57506001600160a01b0380821660009081526005602090815260408083209388168352929052205460ff165b80610f375750836001600160a01b03166112558461051d565b6001600160a01b031614949350505050565b826001600160a01b031661127a82610b67565b6001600160a01b0316146112de5760405162461bcd60e51b815260206004820152602560248201527f4552433732313a207472616e736665722066726f6d20696e636f72726563742060448201526437bbb732b960d91b60648201526084016105d5565b6001600160a01b0382166113595760405162461bcd60e51b8152602060048201526024808201527f4552433732313a207472616e7366657220746f20746865207a65726f2061646460448201527f726573730000000000000000000000000000000000000000000000000000000060648201526084016105d5565b826001600160a01b031661136c82610b67565b6001600160a01b0316146113d05760405162461bcd60e51b815260206004820152602560248201527f4552433732313a207472616e736665722066726f6d20696e636f72726563742060448201526437bbb732b960d91b60648201526084016105d5565b600081815260046020908152604080832080546001600160a01b03199081169091556001600160a01b0387811680865260038552838620805460001901905590871680865283862080546001019055868652600290945282852080549092168417909155905184937fddf252ad1be2c89b69c2b068fc378daa952ba7f163c4a11628f55a4df523b3ef91a4505050565b6007546001600160a01b03163314610c785760405162461bcd60e51b815260206004820181905260248201527f4f776e61626c653a2063616c6c6572206973206e6f7420746865206f776e657260448201526064016105d5565b60006114c68284612150565b9392505050565b60006114c68284612130565b600780546001600160a01b038381166001600160a01b0319831681179093556040519116919082907f8be0079c531659141344cd1fd0a4f28419497f9722a3daafe3b4186f6b6457e090600090a35050565b816001600160a01b0316836001600160a01b0316141561158d5760405162461bcd60e51b815260206004820152601960248201527f4552433732313a20617070726f766520746f2063616c6c65720000000000000060448201526064016105d5565b6001600160a01b03838116600081815260056020908152604080832094871680845294825291829020805460ff191686151590811790915591519182527f17307eab39ab6107e8899845ad3d59bd9653f200f220920489ca2b5937696c31910160405180910390a3505050565b611605848484611267565b611611848484846117df565b610e285760405162461bcd60e51b815260206004820152603260248201527f4552433732313a207472616e7366657220746f206e6f6e20455243373231526560448201527131b2b4bb32b91034b6b83632b6b2b73a32b960711b60648201526084016105d5565b606061168382611117565b600061169a60408051602081019091526000815290565b905060008151116116ba57604051806020016040528060008152506114c6565b806116c484611937565b6040516020016116d5929190612058565b6040516020818303038152906040529392505050565b6107758282604051806020016040528060008152506119ef565b6000828152600260205260409020546001600160a01b031661178f5760405162461bcd60e51b815260206004820152602e60248201527f45524337323155524953746f726167653a2055524920736574206f66206e6f6e60448201527f6578697374656e7420746f6b656e00000000000000000000000000000000000060648201526084016105d5565b600082815260066020908152604090912082516117ae92840190611cda565b506040518281527ff8e1a15aba9398e019f0b49df1a4fde98ee17ae345cb5f6b5e2c27f5033e8ce790602001610932565b60006001600160a01b0384163b1561192c57604051630a85bd0160e11b81526001600160a01b0385169063150b7a0290611823903390899088908890600401612087565b602060405180830381600087803b15801561183d57600080fd5b505af192505050801561186d575060408051601f3d908101601f1916820190925261186a91810190611f6a565b60015b611912573d80801561189b576040519150601f19603f3d011682016040523d82523d6000602084013e6118a0565b606091505b50805161190a5760405162461bcd60e51b815260206004820152603260248201527f4552433732313a207472616e7366657220746f206e6f6e20455243373231526560448201527131b2b4bb32b91034b6b83632b6b2b73a32b960711b60648201526084016105d5565b805181602001fd5b6001600160e01b031916630a85bd0160e11b149050610f37565b506001949350505050565b6060600061194483611a6d565b600101905060008167ffffffffffffffff81111561197257634e487b7160e01b600052604160045260246000fd5b6040519080825280601f01601f19166020018201604052801561199c576020820181803683370190505b5090508181016020015b600019017f3031323334353637383961626364656600000000000000000000000000000000600a86061a8153600a85049450846119e2576119e7565b6119a6565b509392505050565b6119f98383611b4f565b611a0660008484846117df565b6106765760405162461bcd60e51b815260206004820152603260248201527f4552433732313a207472616e7366657220746f206e6f6e20455243373231526560448201527131b2b4bb32b91034b6b83632b6b2b73a32b960711b60648201526084016105d5565b6000807a184f03e93ff9f4daa797ed6e38ed64bf6a1f0100000000000000008310611ab6577a184f03e93ff9f4daa797ed6e38ed64bf6a1f010000000000000000830492506040015b6d04ee2d6d415b85acef81000000008310611ae2576d04ee2d6d415b85acef8100000000830492506020015b662386f26fc100008310611b0057662386f26fc10000830492506010015b6305f5e1008310611b18576305f5e100830492506008015b6127108310611b2c57612710830492506004015b60648310611b3e576064830492506002015b600a83106104855760010192915050565b6001600160a01b038216611ba55760405162461bcd60e51b815260206004820181905260248201527f4552433732313a206d696e7420746f20746865207a65726f206164647265737360448201526064016105d5565b6000818152600260205260409020546001600160a01b031615611c0a5760405162461bcd60e51b815260206004820152601c60248201527f4552433732313a20746f6b656e20616c7265616479206d696e7465640000000060448201526064016105d5565b6000818152600260205260409020546001600160a01b031615611c6f5760405162461bcd60e51b815260206004820152601c60248201527f4552433732313a20746f6b656e20616c7265616479206d696e7465640000000060448201526064016105d5565b6001600160a01b038216600081815260036020908152604080832080546001019055848352600290915280822080546001600160a01b0319168417905551839291907fddf252ad1be2c89b69c2b068fc378daa952ba7f163c4a11628f55a4df523b3ef908290a45050565b828054611ce6906121a7565b90600052602060002090601f016020900481019282611d085760008555611d4e565b82601f10611d2157805160ff1916838001178555611d4e565b82800160010185558215611d4e579182015b82811115611d4e578251825591602001919060010190611d33565b50611d5a929150611d5e565b5090565b5b80821115611d5a5760008155600101611d5f565b80356001600160a01b0381168114611d8a57600080fd5b919050565b600060208284031215611da0578081fd5b6114c682611d73565b60008060408385031215611dbb578081fd5b611dc483611d73565b9150611dd260208401611d73565b90509250929050565b600080600060608486031215611def578081fd5b611df884611d73565b9250611e0660208501611d73565b9150604084013590509250925092565b60008060008060808587031215611e2b578081fd5b611e3485611d73565b9350611e4260208601611d73565b925060408501359150606085013567ffffffffffffffff80821115611e65578283fd5b818701915087601f830112611e78578283fd5b813581811115611e8a57611e8a6121e2565b604051601f8201601f19908116603f01168101908382118183101715611eb257611eb26121e2565b816040528281528a6020848701011115611eca578586fd5b82602086016020830137918201602001949094529598949750929550505050565b60008060408385031215611efd578182fd5b611f0683611d73565b915060208301358015158114611f1a578182fd5b809150509250929050565b60008060408385031215611f37578182fd5b611f4083611d73565b946020939093013593505050565b600060208284031215611f5f578081fd5b81356114c6816121f8565b600060208284031215611f7b578081fd5b81516114c6816121f8565b60008060208385031215611f98578182fd5b823567ffffffffffffffff80821115611faf578384fd5b818501915085601f830112611fc2578384fd5b813581811115611fd0578485fd5b866020828501011115611fe1578485fd5b60209290920196919550909350505050565b600060208284031215612004578081fd5b5035919050565b6000806040838503121561201d578182fd5b50508035926020909101359150565b6000815180845261204481602086016020860161217b565b601f01601f19169290920160200192915050565b6000835161206a81846020880161217b565b83519083019061207e81836020880161217b565b01949350505050565b60006001600160a01b038087168352808616602084015250836040830152608060608301526120b9608083018461202c565b9695505050505050565b6020815260006114c6602083018461202c565b86815260006001600160a01b03808816602084015280871660408401525060a060608301528360a0830152838560c08401378060c0858401015260c0601f19601f8601168301019050826080830152979650505050505050565b60008261214b57634e487b7160e01b81526012600452602481fd5b500490565b600081600019048311821515161561217657634e487b7160e01b81526011600452602481fd5b500290565b60005b8381101561219657818101518382015260200161217e565b83811115610e285750506000910152565b600181811c908216806121bb57607f821691505b602082108114156121dc57634e487b7160e01b600052602260045260246000fd5b50919050565b634e487b7160e01b600052604160045260246000fd5b6001600160e01b03198116811461107957600080fdfea2646970667358221220dc81afc2aadf16176a438fe97f6cae11f492309339f45759fc470fbe5e6608ea64736f6c63430008040033",
  "linkReferences": {},
  "deployedLinkReferences": {}
}